:0400000064EF06F0B3
:1008000000010000000A00000064000000E803008E
:100810000010270000A086010040420F008096983B
:100820000000E1F50500CA9A3B202020202020206E
:100830002020202020202020200020202020465280
:10084000454E414E444F2020202000534554412026
:10085000502F2044495245495441200053455441AA
:1008600020502F2045535155455244410053455483
:10087000412053455155454E4349414C2000464186
:100880005445432053544F2E20414E445245002599
:0B0890006C752E25362E366C750000AE
:10089C000F0EC16E000E936E96688168000E0001FB
:1008AC00C76F7D0EC66F7E0EF66E080EF76E20EECD
:1008BC0060F0100E0900F5CFDEFFE806FBE26D0ECE
:1008CC00F66E080EF76E20EEB5F0100E0900F5CF9F
:1008DC00DEFFE806FBE25C0EF66E080EF76E20EE0D
:1008EC0071F0100E0900F5CFDEFFE806FBE24B0EAF
:1008FC00F66E080EF76E20EE82F0100E0900F5CFA2
:10090C00DEFFE806FBE23A0EF66E080EF76E20EEFE
:10091C0093F0100E0900F5CFDEFFE806FBE2290E7E
:10092C00F66E080EF76E20EEA4F0100E0900F5CF4F
:10093C00DEFFE806FBE230EC05F0600E1C6E000EEC
:10094C001D6E7FEC06F0010E1C6E020E33EC06F0F1
:10095C00B50E1C6E000E1D6E7FEC06F0130E1A6E9B
:10096C00880E196EA3EC06F0010E1C6E010E33EC12
:10097C0006F0B50E1C6E000E1D6E7FEC06F084B0FA
:10098C0022D0EF0E816E010E1C6E020E33EC06F0BF
:10099C00710E1C6E000E1D6E7FEC06F0000E000139
:1009AC00C86F030E0001C86501D00DD0C6C019F088
:1009BC00C7C01AF0A3EC06F0815081240F09816E98
:1009CC000001C82BEED784B222D0F70E816E010E37
:1009DC001C6E020E33EC06F0820E1C6E000E1D6EA9
:1009EC007FEC06F0000E0001C86F030E0001C86515
:1009FC0001D00DD0C6C019F0C7C01AF0A3EC06F098
:100A0C00D8908130F009816E0001C82BEED784B4E8
:100A1C0014D0010E1C6E020E33EC06F0930E1C6EFD
:100A2C00000E1D6E7FEC06F0000E816E010E1A6E2C
:100A3C00F40E196EA3EC06F0A2D78168010E1C6EA1
:100A4C00020E33EC06F0A40E1C6E000E1D6E7FEC35
:100A5C0006F095D79594959295909598959A959C26
:100A6C00959E839483928390839E839C838A8388B0
:100A7C00EA0E1C6EC30EE82EFED71C2EFCD700F01F
:100A8C00838091EC06F0839091EC06F04E0E1C6E78
:100A9C00EB0EE82EFED71C2EFCD700F0838091ECD9
:100AAC0006F0839091EC06F04E0E1C6EEB0EE82EC9
:100ABC00FED71C2EFCD700F0838091EC06F08390BF
:100ACC0091EC06F0839E839C838A8398838091ECBF
:100ADC0006F0839091EC06F0280E7FEC05F0060EE4
:100AEC007FEC05F00E0E7FEC05F0010E7FEC05F0AF
:100AFC0012001B6E8394839283901BA802D0838870
:100B0C0001D083981BAA02D0838A01D0839A1BAC94
:100B1C0002D0838C01D0839C1BAE02D0838E01D07B
:100B2C00839E838091EC06F0839091EC06F01BA0E1
:100B3C0002D0838801D083981BA202D0838A01D073
:100B4C00839A1BA402D0838C01D0839C1BA602D059
:100B5C00838E01D0839E838091EC06F0839091EC80
:100B6C0006F01B04D8B408D0020E1B18D8B404D05D
:100B7C00030E1B18D8A4120091EC06F012001B6E89
:100B8C008394838283901BA802D0838801D083989E
:100B9C001BAA02D0838A01D0839A1BAC02D0838C0F
:100BAC0001D0839C1BAE02D0838E01D0839E8380A8
:100BBC0091EC06F0839091EC06F01BA002D0838898
:100BCC0001D083981BA202D0838A01D0839A1BA4E4
:100BDC0002D0838C01D0839C1BA602D0838E01D0C3
:100BEC00839E838091EC06F0839091EC06F01200CA
:100BFC001B6E839483928390838E1BA802D0838870
:100C0C0001D083981BAA02D0838A01D0839A1BAC93
:100C1C0002D0838C01D0839C838091EC06F083906E
:100C2C0091EC06F01BA002D0838801D083981BA204
:100C3C0002D0838A01D0839A1BA402D0838C01D06A
:100C4C00839C1BA602D0838E01D0839E838091EC63
:100C5C0006F0839091EC06F012001D6E000E1E6ED5
:100C6C001C061ED01CC01EF01E50FEEC05F012001F
:100C7C001C50400F1E6E1E50FEEC05F012001C5056
:100C8C00140F1E6E1E50FEEC05F012001C50540F7B
:100C9C001E6E1E50FEEC05F01200000E1E6E1200B1
:100CAC001D50010AD8B4DED7030AD8B4E1D7010A23
:100CBC00D8B4E5D7070AD8B4E9D7EFD7680EF66EE3
:100CCC000D0EF76E000EF86E00EE12F010EE07F03F
:100CDC000900F5CFEEFFE550E150FAE100EE01F02E
:100CEC00110EEE6AE806FDE1000EF86E00014EEF03
:100CFC0004F009D01CC0D9FF1DC0DAFFDF50C5ECD1
:100D0C0005F01C4A1D2A1CC0D9FF1DC0DAFFDF509C
:100D1C00D8B41200EFD7000E196E1D0E196401D055
:100D2C00120000F0000E1A6E1D0E1A6401D003D0D2
:100D3C0000F01A2AF9D7192AF0D708D0100E1B6E1A
:100D4C00940EE82EFED71B2EFCD700D01906D8A087
:100D5C001A0619501A10D8B41200F0D730303030AF
:030D6C0030300024
:020000040020DA
:08000000FFFFFFFFFFFFFFFF00
:020000040030CA
:0E00000000051F1FFF8385FF0FC00FE00F409C
:00000001FF
