:04000000EAEF05F02E
:1008000000010000000A00000064000000E803008E
:100810000010270000A086010040420F008096983B
:100820000000E1F50500CA9A3B202020202020206E
:100830002020202020202020200050524553532EDD
:10084000203130582042544E423100434C4F434BEC
:100850002045585445524E4F20543000464154458F
:10086000432053544F2E20414E44524500256C7571
:090870002E25362E366C750000B1
:10087A005C0EF66E080EF76E20EE18F0100E0900E8
:10088A00F5CFDEFFE806FBE24B0EF66E080EF76EBA
:10089A0020EE3AF0100E0900F5CFDEFFE806FBE283
:1008AA003A0EF66E080EF76E20EE29F0100E0900C9
:1008BA00F5CFDEFFE806FBE2290EF66E080EF76EAC
:1008CA0020EE07F0100E0900F5CFDEFFE806FBE286
:1008DA00E80ED56EF60ED66E0F0EC16E000E936E32
:1008EA008168B6EC04F00C0E05EC05F0180E046EE7
:1008FA00000E056E05EC06F0010E046E020EB9EC50
:10090A0005F03A0E046E000E056E05EC06F0130EA5
:10091A00026E880E016E29EC06F0010E046E010EBD
:10092A00B9EC05F03A0E046E000E056E05EC06F001
:10093A00010E046E020EB9EC05F0290E046E000ECB
:10094A00056E05EC06F0F2A4FED78150D8A402D0B9
:10095A00816803D0D8908130816EF294F60ED66EFB
:10096A00F2D79594959295909598959A959C959E7F
:10097A00839483928390839E839C838A8388EA0EDE
:10098A00046EC30EE82EFED7042EFCD700F0838037
:10099A0017EC06F0839017EC06F04E0E046EEB0E81
:1009AA00E82EFED7042EFCD700F0838017EC06F061
:1009BA00839017EC06F04E0E046EEB0EE82EFED76F
:1009CA00042EFCD700F0838017EC06F0839017EC16
:1009DA0006F0839E839C838A8398838017EC06F0B3
:1009EA00839017EC06F0280E05EC05F0060E05ECD0
:1009FA0005F00E0E05EC05F0010E05EC05F01200EF
:100A0A00036E83948392839003A802D0838801D0D3
:100A1A00839803AA02D0838A01D0839A03AC02D0B6
:100A2A00838C01D0839C03AE02D0838E01D0839E37
:100A3A00838017EC06F0839017EC06F003A002D02F
:100A4A00838801D0839803A202D0838A01D0839A33
:100A5A0003A402D0838C01D0839C03A602D0838E88
:100A6A0001D0839E838017EC06F0839017EC06F082
:100A7A000304D8B408D0020E0318D8B404D0030E65
:100A8A000318D8A4120017EC06F01200036E839420
:100A9A008382839003A802D0838801D0839803AA13
:100AAA0002D0838A01D0839A03AC02D0838C01D00E
:100ABA00839C03AE02D0838E01D0839E838017EC81
:100ACA0006F0839017EC06F003A002D0838801D0C9
:100ADA00839803A202D0838A01D0839A03A402D006
:100AEA00838C01D0839C03A602D0838E01D0839E7F
:100AFA00838017EC06F0839017EC06F01200036E61
:100B0A00839483928390838E03A802D0838801D032
:100B1A00839803AA02D0838A01D0839A03AC02D0B5
:100B2A00838C01D0839C838017EC06F0839017ECAA
:100B3A0006F003A002D0838801D0839803A202D0D2
:100B4A00838A01D0839A03A402D0838C01D0839C28
:100B5A0003A602D0838E01D0839E838017EC06F011
:100B6A00839017EC06F01200056E000E066E04065E
:100B7A001ED004C006F0065084EC05F012000450A2
:100B8A00400F066E065084EC05F012000450140F54
:100B9A00066E065084EC05F012000450540F066EDF
:100BAA00065084EC05F01200000E066E1200055085
:100BBA00010AD8B4DED7030AD8B4E1D7010AD8B4F7
:100BCA00E5D7070AD8B4E9D7EFD7740EF66E0C0E3C
:100BDA00F76E000EF86E00EE4BF010EE07F009000B
:100BEA00F5CFEEFFE550E150FAE100EE60F0110EAC
:100BFA00EE6AE806FDE1000EF86E00013DEF04F032
:100C0A0009D004C0D9FF05C0DAFFDF504BEC05F06C
:100C1A00044A052A04C0D9FF05C0DAFFDF50D8B458
:100C2A001200EFD7000E016E1D0E016401D01200F2
:100C3A0000F0000E026E1D0E026401D003D000F017
:100C4A00022AF9D7012AF0D708D0100E036E940EA3
:100C5A00E82EFED7032EFCD700D00106D8A0020644
:100C6A0001500210D8B41200F0D730303030303092
:010C7A000079
:020000040020DA
:08000000FFFFFFFFFFFFFFFF00
:020000040030CA
:0E00000000051F1FFF8385FF0FC00FE00F409C
:00000001FF
