:040000001BEF04F0FE
:1008000000010000000A00000064000000E803008E
:100810000010270000A086010040420F008096983B
:100820000000E1F50500CA9A3B256C752E25362E91
:05083000366C750000AC
:10083600B60EF66E080EF76E000EF86E00EE12F0AB
:1008460010EE07F00900F5CFEEFFE550E150FAE1B2
:1008560000EE01F0110EEE6AE806FDE1000EF86EFC
:10086600000136EF04F00F0EC16E000E936E8A681B
:10087600818E010E1A6EF40E196E4AEC04F0819EFA
:10088600010E1A6EF40E196E4AEC04F0F1D708D078
:10089600100E1B6E940EE82EFED71B2EFCD700D032
:1008A6001906D8A01A0619501A10D8B41200F0D793
:0708B600303030303030001B
:020000040020DA
:08000000FFFFFFFFFFFFFFFF00
:020000040030CA
:0E00000000051F1FFF8385FF0FC00FE00F409C
:00000001FF
