:0400000063EF04F0B6
:1008000000010000000A00000064000000E803008E
:100810000010270000A086010040420F008096983B
:100820000000E1F50500CA9A3B256C752E25362E91
:05083000366C750000AC
:100836000F0EC16E000E936E96688168000E1D6ED7
:10084600C80E1C6E84B014D0EF0E816E000E1E6EA4
:10085600030E1E6401D00CD01CC019F01DC01AF086
:100866007EEC04F0815081240F09816E1E2AF0D798
:1008760084B214D0F70E816E000E1E6E030E1E6437
:1008860001D00CD01CC019F01DC01AF07EEC04F08B
:10089600D8908130F009816E1E2AF0D784B4D2D761
:1008A600000E816E010E1A6EF40E196E7EEC04F0C7
:1008B6008168010E1A6EF40E196E7EEC04F0C2D732
:1008C6001E0EF66E090EF76E000EF86E00EE12F0B2
:1008D60010EE07F00900F5CFEEFFE550E150FAE122
:1008E60000EE01F0110EEE6AE806FDE1000EF86E6C
:1008F60000011BEF04F008D0100E1B6E940EE82EBC
:10090600FED71B2EFCD700D01906D8A01A06195000
:0F0916001A10D8B41200F0D73030303030300023
:020000040020DA
:08000000FFFFFFFFFFFFFFFF00
:020000040030CA
:0E00000000051F1FFF8385FF0FC00FE00F409C
:00000001FF
