:0400000099EF07F07D
:1008000000010000000A00000064000000E803008E
:100810000010270000A086010040420F008096983B
:100820000000E1F50500CA9A3B202020202020206E
:10083000202020202020202020002D2D2D20303091
:100840003A30303A3030202D2D2D0052454C4F4754
:10085000494F20332054494D455253004641544599
:10086000432053544F2E20414E44524500256C7571
:090870002E25362E366C750000B1
:10087A005C0EF66E080EF76E20EE71F0100E09008F
:10088A00F5CFDEFFE806FBE24B0EF66E080EF76EBA
:10089A0020EE93F0100E0900F5CFDEFFE806FBE22A
:1008AA003A0EF66E080EF76E20EE82F0100E090070
:1008BA00F5CFDEFFE806FBE2290EF66E080EF76EAC
:1008CA0020EE60F0100E0900F5CFDEFFE806FBE22D
:1008DA00830ED56E6D0ED76E840ED66E870ECD6ED4
:1008EA00FF0ECF6EF60ECE6E070EB16EFD0EB36E14
:1008FA00A80EB26E0F0EC16E000E936E8168000EC6
:10090A000001A56F000EA46F000E0001A66F000E75
:10091A000001A76F000E0001A86F93EC05F00C0E02
:10092A002BEC06F0710E046E000E056EB4EC07F0A7
:10093A00010E046E020EDFEC06F0930E046E000E3A
:10094A00056EB4EC07F0070E026ED00E016ED8ECFD
:10095A0007F0010E046E010EDFEC06F0930E046E32
:10096A00000E056EB4EC07F0010E046E020EDFEC09
:10097A0006F0820E046E000E056EB4EC07F0F2A4C7
:10098A0012D081BE03D0246A242A01D0246A2432D8
:10099A002432815024187F0B2418816E6D0ED76E75
:1009AA00840ED66EF2949EA01BD081BC03D0246A1A
:1009BA00242A01D0246A243A244624468150241841
:1009CA00BF0B2418816EFF0ECF6EF60ECE6E9E9070
:1009DA000001A62B030E226E0001A651E2EC05F0DF
:1009EA00A1A228D081BA03D0246A242A01D0246A79
:1009FA00243A244681502418DF0B2418816EFD0EF8
:100A0A00B36EA80EB26EA1920001A72B000E0001D0
:100A1A00A66F0B0E046E020EDFEC06F0000E1A6EC5
:100A2A00000E196E7BEC07F0020E226E0001A75130
:100A3A00E2EC05F03B0E0001A765A1D70001A82B47
:100A4A00170E0001A86503D0000E0001A86F000E62
:100A5A000001A76F080E046E020EDFEC06F0000E0E
:100A6A001A6E000E196E7BEC07F0010E226E000161
:100A7A00A851E2EC05F083D70AC00EF00BC00FF0C4
:100A8A000EC001F00FC002F00CC003F00DC004F05C
:100A9A0010EC07F001C00EF002C00FF0084A092A54
:100AAA000E500F10D8A4ECD708C0D9FF09C0DAFF3E
:100ABA00000EDF6E0806D8A009060AC001F00BC0B6
:100ACA0002F00CC003F00DC004F05AEC07F001501C
:100ADA00106E0AC001F00BC002F00CC003F00DC08A
:100AEA0004F010EC07F001C00AF002C00BF0090E86
:100AFA00106402D0070E1026300E102608C0D9FF47
:100B0A0009C0DAFF10C0DFFF0806D8A009060A509C
:100B1A000B10D8A4D2D7084A092A120095949592A4
:100B2A0095909598959A959C959E83948392839097
:100B3A00839E839C838A8388EA0E046EC30EE82E02
:100B4A00FED7042EFCD700F08380C6EC07F0839012
:100B5A00C6EC07F04E0E046EEB0EE82EFED7042EFE
:100B6A00FCD700F08380C6EC07F08390C6EC07F050
:100B7A004E0E046EEB0EE82EFED7042EFCD700F0C4
:100B8A008380C6EC07F08390C6EC07F0839E839CB3
:100B9A00838A83988380C6EC07F08390C6EC07F0BB
:100BAA00280E2BEC06F0060E2BEC06F00E0E2BECA4
:100BBA0006F0010E2BEC06F01200236E3CD00A0E52
:100BCA00236006D00C0E046E020EDFEC06F005D090
:100BDA000B0E046E020EDFEC06F023C019F01A6A3F
:100BEA007BEC07F012000A0E236006D0090E046E91
:100BFA00020EDFEC06F005D0080E046E020EDFECE2
:100C0A0006F023C019F01A6A7BEC07F012000A0EEC
:100C1A00236006D0060E046E020EDFEC06F005D045
:100C2A00050E046E020EDFEC06F023C019F01A6AF4
:100C3A007BEC07F012002250010AD8B4E8D7030A65
:100C4A00D8B4D1D7010AD8A41200B9D7036E8394B5
:100C5A008392839003A802D0838801D0839803AA41
:100C6A0002D0838A01D0839A03AC02D0838C01D04C
:100C7A00839C03AE02D0838E01D0839E8380C6EC10
:100C8A0007F08390C6EC07F003A002D0838801D056
:100C9A00839803A202D0838A01D0839A03A402D044
:100CAA00838C01D0839C03A602D0838E01D0839EBD
:100CBA008380C6EC07F08390C6EC07F00304D8B42F
:100CCA0008D0020E0318D8B404D0030E0318D8A40F
:100CDA001200C6EC07F01200036E8394838283909D
:100CEA0003A802D0838801D0839803AA02D0838AFA
:100CFA0001D0839A03AC02D0838C01D0839C03AECB
:100D0A0002D0838E01D0839E8380C6EC07F0839045
:100D1A00C6EC07F003A002D0838801D0839803A20F
:100D2A0002D0838A01D0839A03A402D0838C01D093
:100D3A00839C03A602D0838E01D0839E8380C6EC57
:100D4A0007F08390C6EC07F01200036E8394839237
:100D5A008390838E03A802D0838801D0839803AA44
:100D6A0002D0838A01D0839A03AC02D0838C01D04B
:100D7A00839C8380C6EC07F08390C6EC07F003A03F
:100D8A0002D0838801D0839803A202D0838A01D03B
:100D9A00839A03A402D0838C01D0839C03A602D039
:100DAA00838E01D0839E8380C6EC07F08390C6ECC5
:100DBA0007F01200056E000E066E04061ED004C06F
:100DCA0006F00650AAEC06F012000450400F066E18
:100DDA000650AAEC06F012000450140F066E0650D4
:100DEA00AAEC06F012000450540F066E0650AAEC44
:100DFA0006F01200000E066E12000550010AD8B461
:100E0A00DED7030AD8B4E1D7010AD8B4E5D7070A6E
:100E1A00D8B4E9D7EFD7000E066E000E056E035060
:100E2A000410D8B41CD0010E076E04D0D890033633
:100E3A000436072A04AEFAD7D89005360636035088
:100E4A00015C04500258D8A005D00350015E04503A
:100E5A00025A0580D89004320332072EEDD705C016
:100E6A0001F006C002F0120011C017F012C018F00B
:100E7A0014AE0CD011C0D9FF12C0DAFF2D0EDF6EEE
:100E8A00114A122A136C141ED8B0142A11C008F081
:100E9A0012C009F013C00AF014C00BF015C00CF010
:100EAA0016C00DF041EC05F0120003500410D8B43E
:100EBA0018D0010E056E04D0D89003360436052AE0
:100ECA0004AEFAD70350015C04500258D8A004D0EB
:100EDA000350015E0450025AD89004320332052EA0
:100EEA00F1D701C001F002C002F0120020EE36F084
:100EFA0010EE1BF0060EDBCFE3FFE806FCE21B0E4A
:100F0A00116E000E126E19C013F01AC014F0000E02
:100F1A00166E0A0E156E39EC07F01B0E046E000EE3
:100F2A00056EB4EC07F01200D20EF66E0F0EF76ED5
:100F3A00000EF86E00EE36F010EE07F00900F5CF5D
:100F4A00EEFFE550E150FAE100EE25F0110EEE6AEF
:100F5A00E806FDE1000EF86E00013DEF04F009D04D
:100F6A0004C0D9FF05C0DAFFDF5071EC06F0044A6D
:100F7A00052A04C0D9FF05C0DAFFDF50D8B4120031
:100F8A00EFD7000E016E1D0E016401D0120000F0B1
:100F9A00000E026E1D0E026401D003D000F0022A78
:100FAA00F9D7012AF0D708D0100E036E940EE82E56
:100FBA00FED7032EFCD700D00106D8A002060150A6
:0F0FCA000210D8B41200F0D73030303030300081
:020000040020DA
:08000000FFFFFFFFFFFFFFFF00
:020000040030CA
:0E00000000051F1FFF8385FF0FC00FE00F409C
:00000001FF
