:0400000013EF07F003
:1008000000010000000A00000064000000E803008E
:100810000010270000A086010040420F008096983B
:100820000000E1F50500CA9A3B414E30203D2020F2
:1008300020202020202020202000202020202020D8
:1008400020202020202020202020004144524553F9
:100850004C203D20202020202020200041445245D3
:100860005348203D202020202020202000454E54A9
:100870002E20414E414C4F474943412020004641E4
:100880005445432053544F2E20414E445245002599
:0B0890006C752E25362E366C750000AE
:10089C007E0EF66E080EF76E20EE60F0100E09005C
:1008AC00F5CFDEFFE806FBE26D0EF66E080EF76E76
:1008BC0020EE71F0100E0900F5CFDEFFE806FBE22A
:1008CC005C0EF66E080EF76E20EE82F0100E09002C
:1008DC00F5CFDEFFE806FBE24B0EF66E080EF76E68
:1008EC0020EE93F0100E0900F5CFDEFFE806FBE2D8
:1008FC003A0EF66E080EF76E20EEA4F0100E0900FC
:10090C00F5CFDEFFE806FBE2290EF66E080EF76E59
:10091C0020EEB5F0100E0900F5CFDEFFE806FBE285
:10092C00000E0001C76F000EC66F0E0EC16E010ED9
:10093C00C26E8E0EC06E56EC05F00C0EA5EC05F0DA
:10094C00600E046E000E056E2EEC07F0010E046EA8
:10095C00020E59EC06F0710E046E000E056E2EECB4
:10096C0007F0130E026E880E016E52EC07F0010EAA
:10097C00046E010E59EC06F0820E046E000E056E2C
:10098C002EEC07F0010E046E020E59EC06F0930EDD
:10099C00046E000E056E2EEC07F0030EC26EC2B292
:1009AC00FED7C450236E226AC35022240001C66FA6
:1009BC00000E23200001C76F010E046E010E59ECCE
:1009CC0006F0A40E046E000E056E2EEC07F0010E60
:1009DC00046E020E59EC06F0B50E046E000E056E98
:1009EC002EEC07F0070E046E020E59EC06F0C6C092
:1009FC0019F0C7C01AF0F5EC06F0CFD70AC00EF00C
:100A0C000BC00FF00EC001F00FC002F00CC003F0D1
:100A1C000DC004F08AEC06F001C00EF002C00FF01D
:100A2C00084A092A0E500F10D8A4ECD708C0D9FFD9
:100A3C0009C0DAFF000EDF6E0806D8A009060AC04E
:100A4C0001F00BC002F00CC003F00DC004F0D4ECAC
:100A5C0006F00150106E0AC001F00BC002F00CC081
:100A6C0003F00DC004F08AEC06F001C00AF002C0DD
:100A7C000BF0090E106402D0070E1026300E102653
:100A8C0008C0D9FF09C0DAFF10C0DFFF0806D8A0E4
:100A9C0009060A500B10D8A4D2D7084A092A12000A
:100AAC009594959295909598959A959C959E8394EE
:100ABC0083928390839E839C838A8388EA0E046E40
:100ACC00C30EE82EFED7042EFCD700F0838040EC3A
:100ADC0007F0839040EC07F04E0E046EEB0EE82E00
:100AEC00FED7042EFCD700F0838040EC07F08390F7
:100AFC0040EC07F04E0E046EEB0EE82EFED7042EE3
:100B0C00FCD700F0838040EC07F0839040EC07F0BA
:100B1C00839E839C838A8398838040EC07F0839028
:100B2C0040EC07F0280EA5EC05F0060EA5EC05F040
:100B3C000E0EA5EC05F0010EA5EC05F01200036EEF
:100B4C0083948392839003A802D0838801D08398E6
:100B5C0003AA02D0838A01D0839A03AC02D0838C7F
:100B6C0001D0839C03AE02D0838E01D0839E838000
:100B7C0040EC07F0839040EC07F003A002D0838890
:100B8C0001D0839803A202D0838A01D0839A03A454
:100B9C0002D0838C01D0839C03A602D0838E01D01B
:100BAC00839E838040EC07F0839040EC07F00304B5
:100BBC00D8B408D0020E0318D8B404D0030E03180E
:100BCC00D8A4120040EC07F01200036E83948382C9
:100BDC00839003A802D0838801D0839803AA02D003
:100BEC00838A01D0839A03AC02D0838C01D0839C7E
:100BFC0003AE02D0838E01D0839E838040EC07F03D
:100C0C00839040EC07F003A002D0838801D0839836
:100C1C0003A202D0838A01D0839A03A402D0838CCE
:100C2C0001D0839C03A602D0838E01D0839E838047
:100C3C0040EC07F0839040EC07F01200036E8394B5
:100C4C0083928390838E03A802D0838801D08398EB
:100C5C0003AA02D0838A01D0839A03AC02D0838C7E
:100C6C0001D0839C838040EC07F0839040EC07F02C
:100C7C0003A002D0838801D0839803A202D0838A78
:100C8C0001D0839A03A402D0838C01D0839C03A649
:100C9C0002D0838E01D0839E838040EC07F083903A
:100CAC0040EC07F01200056E000E066E04061ED016
:100CBC0004C006F0065024EC06F012000450400F5D
:100CCC00066E065024EC06F012000450140F066E4B
:100CDC00065024EC06F012000450540F066E065019
:100CEC0024EC06F01200000E066E12000550010AEC
:100CFC00D8B4DED7030AD8B4E1D7010AD8B4E5D703
:100D0C00070AD8B4E9D7EFD7000E066E000E056EB1
:100D1C0003500410D8B41CD0010E076E04D0D89028
:100D2C0003360436072A04AEFAD7D89005360636B1
:100D3C000350015C04500258D8A005D00350015E4A
:100D4C000450025A0580D89004320332072EEDD796
:100D5C0005C001F006C002F0120011C017F012C05D
:100D6C0018F014AE0CD011C0D9FF12C0DAFF2D0E42
:100D7C00DF6E114A122A136C141ED8B0142A11C03B
:100D8C0008F012C009F013C00AF014C00BF015C023
:100D9C000CF016C00DF004EC05F01200035004101A
:100DAC00D8B418D0010E056E04D0D8900336043692
:100DBC00052A04AEFAD70350015C04500258D8A09F
:100DCC0004D00350015E0450025AD890043203320E
:100DDC00052EF1D701C001F002C002F0120020EE86
:100DEC0035F010EE1BF0060EDBCFE3FFE806FCE25D
:100DFC001B0E116E000E126E19C013F01AC014F0F7
:100E0C00000E166E0A0E156EB3EC06F01B0E046E79
:100E1C00000E056E2EEC07F01200C60EF66E0E0ECE
:100E2C00F76E000EF86E00EE35F010EE07F00900CC
:100E3C00F5CFEEFFE550E150FAE100EE24F0110E93
:100E4C00EE6AE806FDE1000EF86E00014EEF04F0CC
:100E5C0009D004C0D9FF05C0DAFFDF50EBEC05F078
:100E6C00044A052A04C0D9FF05C0DAFFDF50D8B404
:100E7C001200EFD7000E016E1D0E016401D012009E
:100E8C0000F0000E026E1D0E026401D003D000F0C3
:100E9C00022AF9D7012AF0D708D0100E036E940E4F
:100EAC00E82EFED7032EFCD700D00106D8A00206F0
:100EBC0001500210D8B41200F0D73030303030303E
:010ECC000025
:020000040020DA
:08000000FFFFFFFFFFFFFFFF00
:020000040030CA
:0E00000000051F1FFF8385FF0FC00FE00F409C
:00000001FF
