:040000006CEF06F0AB
:1008000000010000000A00000064000000E803008E
:100810000010270000A086010040420F008096983B
:100820000000E1F50500CA9A3B256C752E25362E91
:0F083000366C7500434F4E5441444F5220000028
:100840000AC00EF00BC00FF00EC001F00FC002F096
:100850000CC003F00DC004F0E3EC05F001C00EF095
:1008600002C00FF0084A092A0E500F10D8A4ECD786
:1008700008C0D9FF09C0DAFF000EDF6E0806D8A055
:1008800009060AC001F00BC002F00CC003F00DC055
:1008900004F02DEC06F00150106E0AC001F00BC000
:1008A00002F00CC003F00DC004F0E3EC05F001C051
:1008B0000AF002C00BF0090E106402D0070E1026D9
:1008C000300E102608C0D9FF09C0DAFF10C0DFFFC4
:1008D0000806D8A009060A500B10D8A4D2D7084A97
:1008E000092A12009594959295909598959A959CC1
:1008F000959E839483928390839E839C838A83882E
:10090000EA0E046EC30EE82EFED7042EFCD700F0CC
:100910008380AEEC06F08390AEEC06F04E0E046ED3
:10092000EB0EE82EFED7042EFCD700F08380AEEC51
:1009300006F08390AEEC06F04E0E046EEB0EE82E41
:10094000FED7042EFCD700F08380AEEC06F0839037
:10095000AEEC06F0839E839C838A83988380AEEC02
:1009600006F08390AEEC06F0280EC1EC04F0060E03
:10097000C1EC04F00E0EC1EC04F0010EC1EC04F069
:100980001200036E83948392839003A802D083881D
:1009900001D0839803AA02D0838A01D0839A03AC42
:1009A00002D0838C01D0839C03AE02D0838E01D011
:1009B000839E8380AEEC06F08390AEEC06F003A03D
:1009C00002D0838801D0839803A202D0838A01D009
:1009D000839A03A402D0838C01D0839C03A602D007
:1009E000838E01D0839E8380AEEC06F08390AEECC4
:1009F00006F00304D8B408D0020E0318D8B404D00B
:100A0000030E0318D8A41200AEEC06F01200870EF5
:100A1000D56EE50ED66E480ED76E0F0EC16E000E67
:100A2000936E816872EC04F0010E046E010EB2EC5C
:100A300005F0340E046E080E056E87EC06F0F2A485
:100A4000FED7F294232AE50ED66E480ED76E1D0E01
:100A500023640FD081BE03D0226A222A01D0226AE9
:100A600022322232815022187F0B2218816E000E12
:100A7000236E0A0E046E010EB2EC05F023C019F0CD
:100A80001A6A4EEC06F0DBD7036E83948382839060
:100A900003A802D0838801D0839803AA02D0838A56
:100AA00001D0839A03AC02D0838C01D0839C03AE27
:100AB00002D0838E01D0839E8380AEEC06F08390BB
:100AC000AEEC06F003A002D0838801D0839803A285
:100AD00002D0838A01D0839A03A402D0838C01D0F0
:100AE000839C03A602D0838E01D0839E8380AEECCC
:100AF00006F08390AEEC06F01200036E83948392AE
:100B00008390838E03A802D0838801D0839803AAA0
:100B100002D0838A01D0839A03AC02D0838C01D0A7
:100B2000839C8380AEEC06F08390AEEC06F003A0CD
:100B300002D0838801D0839803A202D0838A01D097
:100B4000839A03A402D0838C01D0839C03A602D095
:100B5000838E01D0839E8380AEEC06F08390AEEC52
:100B600006F01200056E000E066E04061ED004C0CC
:100B700006F006507DEC05F012000450400F066EA2
:100B800006507DEC05F012000450140F066E06505E
:100B90007DEC05F012000450540F066E06507DECFB
:100BA00005F01200000E066E12000550010AD8B4BE
:100BB000DED7030AD8B4E1D7010AD8B4E5D7070ACB
:100BC000D8B4E9D7EFD7000E066E000E056E0350BD
:100BD0000410D8B41CD0010E076E04D0D890033690
:100BE0000436072A04AEFAD7D890053606360350E5
:100BF000015C04500258D8A005D00350015E045097
:100C0000025A0580D89004320332072EEDD705C072
:100C100001F006C002F0120011C017F012C018F067
:100C200014AE0CD011C0D9FF12C0DAFF2D0EDF6E4A
:100C3000114A122A136C141ED8B0142A11C008F0DD
:100C400012C009F013C00AF014C00BF015C00CF06C
:100C500016C00DF020EC04F0120003500410D8B4BC
:100C600018D0010E056E04D0D89003360436052A3C
:100C700004AEFAD70350015C04500258D8A004D047
:100C80000350015E0450025AD89004320332052EFC
:100C9000F1D701C001F002C002F0120020EE35F0E1
:100CA00010EE1BF0060EDBCFE3FFE806FCE21B0EA6
:100CB000116E000E126E19C013F01AC014F0000E5F
:100CC000166E0A0E156E0CEC06F01B0E046E000E6E
:100CD000056E9CEC06F01200800EF66E0D0EF76E9F
:100CE000000EF86E00EE35F010EE07F00900F5CFBB
:100CF000EEFFE550E150FAE100EE24F0110EEE6A4D
:100D0000E806FDE1000EF86E000107EF05F00AD0DD
:100D100004C0F6FF05C0F7FF0800F55044EC05F0ED
:100D2000044A052A04C0F6FF05C0F7FF0800F55085
:100D30000009D8B41200ECD709D004C0D9FF05C00F
:100D4000DAFFDF5044EC05F0044A052A04C0D9FF5D
:100D500005C0DAFFDF50D8B41200EFD7000E016EE5
:100D60001D0E016401D0120000F0000E026E1D0E77
:100D7000026401D003D000F0022AF9D7012AF0D78B
:070D8000303030303030004C
:020000040020DA
:08000000FFFFFFFFFFFFFFFF00
:020000040030CA
:0E00000000051F1FFF8385FF0FC00FE00F409C
:00000001FF
