:04000000C2EF07F054
:1008000000010000000A00000064000000E803008E
:100810000010270000A086010040420F008096983B
:100820000000E1F50500CA9A3B202020202020206E
:1008300020202020202020202000202020202020D8
:10084000202020206B6D206820200052414441521E
:100850002056454C4F434944414445004641544588
:10086000432053544F2E20414E44524500256C7571
:0B0870002E25362E366C75002E000081
:10087C005C0EF66E080EF76E20EE60F0100E09009E
:10088C00F5CFDEFFE806FBE24B0EF66E080EF76EB8
:10089C0020EE93F0100E0900F5CFDEFFE806FBE228
:1008AC003A0EF66E080EF76E20EE71F0100E09007F
:1008BC00F5CFDEFFE806FBE2290EF66E080EF76EAA
:1008CC0020EE82F0100E0900F5CFDEFFE806FBE209
:1008DC00880ED56E200ED66ED10ED76E0F0EC16E51
:1008EC009668DCEC05F00C0E2BEC06F0600E046E3A
:1008FC00000E056E39EC07F0010E046E020EDFECF3
:10090C0006F0930E046E000E056E39EC07F0130E14
:10091C00026E880E016EEFEC07F0010E046E010EF4
:10092C00DFEC06F0930E046E000E056E39EC07F04A
:10093C00010E046E020EDFEC06F0820E046E000E49
:10094C00056E39EC07F084B0FED7000E0001AB6FDA
:10095C00000EAA6F0AD0F2A408D0F2940001AA4BA0
:10096C00AB2B200ED66ED10ED76E84B2F4D700010D
:10097C00AA510001AB11D8B4E6D7A00E016E8C0EB3
:10098C00026E000E036E000E046EAAC005F0ABC022
:10099C0006F0076A086A24EC05F001C0A6F002C054
:1009AC00A7F0A6C001F0A7C002F0000E046E0A0E5C
:1009BC00036E10EC07F001C0A8F002C0A9F0A8C0AB
:1009CC0022F0A9C023F0221E231E224A232A000152
:1009DC00A65122240001A46F0001A751232000017D
:1009EC00A56F010E046E020EDFEC06F0710E046EA4
:1009FC00000E056E39EC07F0030E046E020EDFECF0
:100A0C0006F0A8C019F0A9C01AF0A4EC07F0060E65
:100A1C00046E020EDFEC06F0780E046E080E056E06
:100A2C0039EC07F0070E046E020EDFEC06F0A4C0E2
:100A3C0019F0A5C01AF0A4EC07F085D7000E0A6EC9
:100A4C0008AE0AD0081E071E061E056C000E0622F4
:100A5C0007220822010E0A6E04AE0AD0041E031EE1
:100A6C00021E016C000E022203220422010E0A1A3D
:100A7C00000E0B6E000E0C6E000E0D6E000E0E6E48
:100A8C000550061007100810D8B42AD0010E096EB4
:100A9C0006D0D8900536063607360836092A08AE31
:100AAC00F8D7D8900B360C360D360E360550015C47
:100ABC00065002580750035808500458D8A009D0C3
:100ACC000550015E0650025A0750035A0850045A4A
:100ADC000B80D8900832073206320532092EE1D746
:100AEC000A50D8B408D00E1E0D1E0C1E0B6C000E36
:100AFC000C220D220E220BC001F00CC002F00DC016
:100B0C0003F00EC004F012000AC00EF00BC00FF080
:100B1C000EC001F00FC002F00CC003F00DC004F0C9
:100B2C0010EC07F001C00EF002C00FF0084A092AC1
:100B3C000E500F10D8A4ECD708C0D9FF09C0DAFFAB
:100B4C00000EDF6E0806D8A009060AC001F00BC023
:100B5C0002F00CC003F00DC004F083EC07F0015060
:100B6C00106E0AC001F00BC002F00CC003F00DC0F7
:100B7C0004F010EC07F001C00AF002C00BF0090EF3
:100B8C00106402D0070E1026300E102608C0D9FFB4
:100B9C0009C0DAFF10C0DFFF0806D8A009060A500A
:100BAC000B10D8A4D2D7084A092A12009594959212
:100BBC0095909598959A959C959E83948392839005
:100BCC00839E839C838A8388EA0E046EC30EE82E70
:100BDC00FED7042EFCD700F08380DDEC07F0839069
:100BEC00DDEC07F04E0E046EEB0EE82EFED7042E55
:100BFC00FCD700F08380DDEC07F08390DDEC07F090
:100C0C004E0E046EEB0EE82EFED7042EFCD700F031
:100C1C008380DDEC07F08390DDEC07F0839E839CF2
:100C2C00838A83988380DDEC07F08390DDEC07F0FA
:100C3C00280E2BEC06F0060E2BEC06F00E0E2BEC11
:100C4C0006F0010E2BEC06F01200036E83948392D7
:100C5C00839003A802D0838801D0839803AA02D082
:100C6C00838A01D0839A03AC02D0838C01D0839CFD
:100C7C0003AE02D0838E01D0839E8380DDEC07F01F
:100C8C008390DDEC07F003A002D0838801D0839819
:100C9C0003A202D0838A01D0839A03A402D0838C4E
:100CAC0001D0839C03A602D0838E01D0839E8380C7
:100CBC00DDEC07F08390DDEC07F00304D8B408D02A
:100CCC00020E0318D8B404D0030E0318D8A41200D3
:100CDC00DDEC07F01200036E83948382839003A8EB
:100CEC0002D0838801D0839803AA02D0838A01D0D2
:100CFC00839A03AC02D0838C01D0839C03AE02D0C8
:100D0C00838E01D0839E8380DDEC07F08390DDEC35
:100D1C0007F003A002D0838801D0839803A202D0ED
:100D2C00838A01D0839A03A402D0838C01D0839C44
:100D3C0003A602D0838E01D0839E8380DDEC07F066
:100D4C008390DDEC07F01200036E83948392839002
:100D5C00838E03A802D0838801D0839803AA02D083
:100D6C00838A01D0839A03AC02D0838C01D0839CFC
:100D7C008380DDEC07F08390DDEC07F003A002D05C
:100D8C00838801D0839803A202D0838A01D0839AEE
:100D9C0003A402D0838C01D0839C03A602D0838E43
:100DAC0001D0839E8380DDEC07F08390DDEC07F0AF
:100DBC001200056E000E066E04061ED004C006F06E
:100DCC000650AAEC06F012000450400F066E0650B6
:100DDC00AAEC06F012000450140F066E0650AAEC92
:100DEC0006F012000450540F066E0650AAEC06F0E2
:100DFC001200000E066E12000550010AD8B4DED7A0
:100E0C00030AD8B4E1D7010AD8B4E5D7070AD8B495
:100E1C00E9D7EFD7000E066E000E056E03500410D6
:100E2C00D8B41CD0010E076E04D0D890033604360B
:100E3C00072A04AEFAD7D890053606360350015C63
:100E4C0004500258D8A005D00350015E0450025A39
:100E5C000580D89004320332072EEDD705C001F07F
:100E6C0006C002F0120014D004C0F6FF05C0F7FF54
:100E7C00F86A070EF76403D00800F55005D0F6CFDA
:100E8C00E9FFF7CFEAFFEF5071EC06F0044A052AB0
:100E9C0004C0F6FF05C0F7FFF86A070EF76403D02D
:100EAC000800F55005D0F6CFE9FFF7CFEAFFEF5079
:100EBC000009D8B41200D8D711C017F012C018F01E
:100ECC0014AE0CD011C0D9FF12C0DAFF2D0EDF6E9C
:100EDC00114A122A136C141ED8B0142A11C008F02F
:100EEC0012C009F013C00AF014C00BF015C00CF0BE
:100EFC0016C00DF08AEC05F0120003500410D8B4A3
:100F0C0018D0010E056E04D0D89003360436052A8D
:100F1C0004AEFAD70350015C04500258D8A004D098
:100F2C000350015E0450025AD89004320332052E4D
:100F3C00F1D701C001F002C002F0120020EE35F032
:100F4C0010EE1BF0060EDBCFE3FFE806FCE21B0EF7
:100F5C00116E000E126E19C013F01AC014F0000EB0
:100F6C00166E0A0E156E62EC07F01B0E046E000E68
:100F7C00056E39EC07F01200000EF66E100EF76ECF
:100F8C00000EF86E00EE35F010EE07F00900F5CF0C
:100F9C00EEFFE550E150FAE100EE24F0110EEE6A9E
:100FAC00E806FDE1000EF86E00013EEF04F0000EC5
:100FBC00016E1D0E016401D0120000F0000E026ED5
:100FCC001D0E026401D003D000F0022AF9D7012AC9
:100FDC00F0D708D0100E036E940EE82EFED7032E19
:100FEC00FCD700D00106D8A0020601500210D8B4DC
:0B0FFC001200F0D730303030303000F1
:020000040020DA
:08000000FFFFFFFFFFFFFFFF00
:020000040030CA
:0E00000000051F1FFF8385FF0FC00FE00F409C
:00000001FF
