:0400000078EF04F0A1
:1008000000010000000A00000064000000E803008E
:100810000010270000A086010040420F008096983B
:100820000000E1F50500CA9A3B256C752E25362E91
:05083000366C750000AC
:100836000F0EC16E000E936E9668816884B029D043
:100846008198000E1A6E640E196E93EC04F081887E
:10085600819A000E1A6E640E196E93EC04F0818A6A
:10086600819C000E1A6E640E196E93EC04F0818C56
:10087600819E000E1A6E640E196E93EC04F0818848
:10088600818A818C818E000E1A6E640E196E93EC2D
:1008960004F084B2D3D78196000E1A6E640E196ED8
:1008A60093EC04F081868194000E1A6E640E196E24
:1008B60093EC04F081848192000E1A6E640E196E18
:1008C60093EC04F081828190000E1A6E640E196E0C
:1008D60093EC04F08186818481828180000E1A6EF9
:1008E600640E196E93EC04F0A9D7480EF66E090E45
:1008F600F76E000EF86E00EE12F010EE07F009002B
:10090600F5CFEEFFE550E150FAE100EE01F0110EF1
:10091600EE6AE806FDE1000EF86E00011BEF04F03A
:1009260008D0100E1B6E940EE82EFED71B2EFCD799
:1009360000D01906D8A01A0619501A10D8B41200F9
:09094600F0D730303030303000C1
:020000040020DA
:08000000FFFFFFFFFFFFFFFF00
:020000040030CA
:0E00000000051F1FFF8385FF0FC00FE00F409C
:00000001FF
