:0400000007EF00F016
:0A0008004982C8ED04F048EF07F04C
:1008000000010000000A00000064000000E803008E
:100810000010270000A086010040420F008096983B
:100820000000E1F50500CA9A3B202020202020206E
:1008300020202020202020202000434F4E544144DF
:100840004F52203D202020202020002020494E54BF
:100850004552525550434F45532020004641544580
:10086000432053544F2E20414E44524500256C7571
:0D0870002E25362E366C750030202000003D
:10087E005C0EF66E080EF76E20EE71F0100E09008B
:10088E00F5CFDEFFE806FBE24B0EF66E080EF76EB6
:10089E0020EE93F0100E0900F5CFDEFFE806FBE226
:1008AE003A0EF66E080EF76E20EE82F0100E09006C
:1008BE00F5CFDEFFE806FBE2290EF66E080EF76EA8
:1008CE0020EE60F0100E0900F5CFDEFFE806FBE229
:1008DE00C168030E936E96688A68F296F288F08667
:1008EE00F28EF28ED09EF19C80EC05F00C0ECFECC9
:1008FE0005F0710E136E000E146EDDEC06F0010E97
:10090E00136E020E83EC06F0930E136E000E146E31
:10091E00DDEC06F00B0E116EB80E106E97EC07F0B4
:10092E00010E136E010E83EC06F0820E136E000E96
:10093E00146EDDEC06F0010E136E020E83EC06F063
:10094E00930E136E000E146EDDEC06F00C0E136E8D
:10095E00010E83EC06F0A4C028F0296A67EC07F0BC
:10096E0084B4F4D7000E0001A46F0C0E136E010EAA
:10097E0083EC06F0780E136E080E146EDDEC06F0A6
:10098E00E5D70600FACF02F0FBCF03F0E9CF04F073
:10099E00EACF05F0E1CF06F0E2CF07F0D9CF08F0AD
:1009AE00DACF09F0F3CF0AF0F4CF0BF0F6CF0CF05C
:1009BE00F7CF0DF0F8CF0EF0F5CF0FF0F2B8F2A2A0
:1009CE0010D081BE03D0016A012A01D0016A013222
:1009DE000132815001187F0B0118816E0001A42B8A
:1009EE00F292F0B6F0A015D081BC03D0016A012AB4
:1009FE0001D0016A013A0146014681500118BF0B30
:100A0E000118816E0001A451D8B402D00001A407D0
:100A1E00F0900FC0F5FF0EC0F8FF0DC0F7FF0CC031
:100A2E00F6FF0BC0F4FF0AC0F3FF09C0DAFF08C0DF
:100A3E00D9FF07C0E2FF06C0E1FF05C0EAFF04C010
:100A4E00E9FF03C0FBFF02C0FAFF4992110019C073
:100A5E001DF01AC01EF01DC010F01EC011F01BC0FC
:100A6E0012F01CC013F0B4EC06F010C01DF011C053
:100A7E001EF0174A182A1D501E10D8A4ECD717C006
:100A8E00D9FF18C0DAFF000EDF6E1706D8A01806C1
:100A9E0019C010F01AC011F01BC012F01CC013F0D8
:100AAE0027EC07F010501F6E19C010F01AC011F08D
:100ABE001BC012F01CC013F0B4EC06F010C019F0FD
:100ACE0011C01AF0090E1F6402D0070E1F26300E39
:100ADE001F2617C0D9FF18C0DAFF1FC0DFFF170689
:100AEE00D8A0180619501A10D8A4D2D7174A182A07
:100AFE0012009594959295909598959A959C959EA1
:100B0E00839483928390839E839C838A8388EA0E48
:100B1E00136EC30EE82EFED7132EFCD700F0838083
:100B2E0085EC07F0839085EC07F04E0E136EEB0EFE
:100B3E00E82EFED7132EFCD700F0838085EC07F04D
:100B4E00839085EC07F04E0E136EEB0EE82EFED75B
:100B5E00132EFCD700F0838085EC07F0839085EC94
:100B6E0007F0839E839C838A8398838085EC07F0AD
:100B7E00839085EC07F0280ECFEC05F0060ECFEC37
:100B8E0005F00E0ECFEC05F0010ECFEC05F01200C5
:100B9E00126E83948392839012A802D0838801D020
:100BAE00839812AA02D0838A01D0839A12AC02D003
:100BBE00838C01D0839C12AE02D0838E01D0839E93
:100BCE00838085EC07F0839085EC07F012A002D0AD
:100BDE00838801D0839812A202D0838A01D0839A8F
:100BEE0012A402D0838C01D0839C12A602D0838ED5
:100BFE0001D0839E838085EC07F0839085EC07F00F
:100C0E001204D8B408D0020E1218D8B404D0030EB1
:100C1E001218D8A4120085EC07F01200126E8394FD
:100C2E008382839012A802D0838801D0839812AA5F
:100C3E0002D0838A01D0839A12AC02D0838C01D069
:100C4E00839C12AE02D0838E01D0839E838085EC6E
:100C5E0007F0839085EC07F012A002D0838801D0B4
:100C6E00839812A202D0838A01D0839A12A402D052
:100C7E00838C01D0839C12A602D0838E01D0839EDA
:100C8E00838085EC07F0839085EC07F01200126EDE
:100C9E00839483928390838E12A802D0838801D08E
:100CAE00839812AA02D0838A01D0839A12AC02D002
:100CBE00838C01D0839C838085EC07F0839085EC38
:100CCE0007F012A002D0838801D0839812A202D01E
:100CDE00838A01D0839A12A402D0838C01D0839C84
:100CEE0012A602D0838E01D0839E838085EC07F0FE
:100CFE00839085EC07F01200146E000E156E13062D
:100D0E001ED013C015F015504EEC06F01200135005
:100D1E00400F156E15504EEC06F012001350140FC6
:100D2E00156E15504EEC06F012001350540F156E42
:100D3E0015504EEC06F01200000E156E12001450F7
:100D4E00010AD8B4DED7030AD8B4E1D7010AD8B461
:100D5E00E5D7070AD8B4E9D7EFD7000E156E000E07
:100D6E00146E12501310D8B41CD0010E166E04D08F
:100D7E00D89012361336162A13AEFAD7D8901436E8
:100D8E0015361250105C13501158D8A005D01250C1
:100D9E00105E1350115A1480D89013321232162E40
:100DAE00EDD714C010F015C011F0120014D013C0FE
:100DBE00F6FF14C0F7FFF86A070EF76403D00800B9
:100DCE00F55005D0F6CFE9FFF7CFEAFFEF5015EC5F
:100DDE0006F0134A142A13C0F6FF14C0F7FFF86A80
:100DEE00070EF76403D00800F55005D0F6CFE9FFE3
:100DFE00F7CFEAFFEF500009D8B41200D8D720C0C1
:100E0E0026F021C027F023AE0CD020C0D9FF21C080
:100E1E00DAFF2D0EDF6E204A212A226C231ED8B057
:100E2E00232A20C017F021C018F022C019F023C0C9
:100E3E001AF024C01BF025C01CF02EEC05F0120099
:100E4E0012501310D8B418D0010E146E04D0D890CE
:100E5E0012361336142A13AEFAD71250105C1350F2
:100E6E001158D8A004D01250105E1350115AD890B9
:100E7E0013321232142EF1D710C010F011C011F02F
:100E8E001200500EF66E0F0EF76E000EF86E00EE9C
:100E9E0042F010EE07F00900F5CFEEFFE550E150FD
:100EAE00FAE10001A46B00EE31F0110EEE6AE806D5
:100EBE00FDE149904992000EF86E00013FEF04F0FB
:100ECE0020EE42F010EE2AF0060EDBCFE3FFE8062E
:100EDE00FCE22A0E206E000E216E28C022F029C0E0
:100EEE0023F0000E256E0A0E246E06EC07F02A0E75
:100EFE00136E000E146EDDEC06F01200000E106E76
:100F0E001D0E106401D0120000F0000E116E1D0EA9
:100F1E00116401D003D000F0112AF9D7102AF0D7AE
:100F2E0008D0100E126E940EE82EFED7122EFCD79D
:100F3E0000D01006D8A0110610501110D8B412000F
:090F4E00F0D730303030303000B3
:020000040020DA
:08000000FFFFFFFFFFFFFFFF00
:020000040030CA
:0E00000000051F1FFF8385FF0FC00FE00F409C
:00000001FF
